:020000040800F2
:1000000010D6002045010008751300084B110008A8
:1000100071130008BF0800084B2B00080000000007
:10002000000000000000000000000000152700088C
:10003000F30C0008000000009514000835280008A3
:100040005F010008ED1300085F010008D9160008E1
:100050005F0100085F010008F50C0008550D00085D
:100060005F0D0008690D0008730D0008A10A000863
:100070005F0100085F0100085F0100085F010008E0
:100080005F0100085F0100085F0100085F010008D0
:100090005F0100085F0100085F0100087D0D000896
:1000A0005F0100085F0100085F0100085F010008B0
:1000B000D92900085F0100085F01000861110008EC
:1000C0005111000881110008711100085F0100083A
:1000D0005F0100085F0100085F0100085F01000880
:1000E000010D00085F010008412B00085F010008B6
:1000F0005F0100085F0100085F0100085F01000860
:100100005F010008551900085F0100085F01000841
:100110005F0100085F0100085F0100085F0100083F
:100120005F0100085F0100085F0100085F0100082F
:10013000DFF80CD000F098FA004800471D5B00087B
:1001400010D600200648804706480047FEE7FEE735
:10015000FEE7FEE7FEE7FEE7FEE7FEE7FEE7FEE777
:100160007929000831010008F0B480EA0102D40FB7
:100170004200B2EB410F02D20246084611464A0045
:1001800042D0C30DDDB2C1F3C752AD1A202D35DA0E
:10019000C1F3160141F4000204B15242C5F1200638
:1001A00002FA06F12A411044B3EBD05F23D0C4B168
:1001B000012DA0EBC35009DCF0BC4FF0004202EA75
:1001C000C35200F50000DBB200F0C1B9400000F1FD
:1001D000807000EBC350A0F1807040EAD1704900FC
:1001E00009E0490841EAC071A0EBC35000F50000E6
:1001F000400800EBC350F0BC00F0A0B961420122FE
:1002000002EB4101001BF6E7F0BC704781F00041B2
:10021000AAE780F00040A7E780EA010210B502F0EB
:100220000043400026D04A0023D04FEA106101EB82
:100230001261C0F35600C2F3560240F4000042F4CB
:100240000002A0FB0220A1F17F014FEA004014044C
:1002500001D000F1010050EA124001D44000491ED3
:10026000C2B20C0604EBD010401C4008802A02D019
:1002700003E0002010BD20F00100002900DA00207A
:10028000184310BD30B480EA010202F0004530F09E
:10029000004221F0004015D0A0B1C0F3C753C2F313
:1002A000C754C2F31601C0F31600E41A41F400016A
:1002B00040F400027D34914201D3641C00E0490007
:1002C000002C02DA30BC002070474FF400000023FD
:1002D000914201D3891A034340084FEA4101F7D103
:1002E00051B1914202D14FF0004105E002D24FF0EE
:1002F000010101E06FF0010103EBC450284430BC60
:1003000000F01CB92DE9FE4F81EA030404F000441B
:1003100021F0004100944FF0000B23F0004350EA1D
:10032000010402D052EA030404D10020014603B0C4
:10033000BDE8F08FC3F30A54C1F30A552C44A4F26C
:10034000F3340194A0FB0254C1F3130141F4801172
:10035000C3F3130343F4801301FB024400FB034E79
:10036000840A970A44EA815447EA8357A4FB076842
:1003700002958D0A05FB07854FEA932C04FB0C546C
:100380002705029D4FEA065847EA1637B5EB0805E0
:100390006EEB070C870E920E47EA811742EA831232
:1003A000A7FB0201B6EB0B0164EB00042B0D43EA43
:1003B0000C335E1844EB1C50DA465146E7FB020151
:1003C000C5F313044FEA0B3343EA14534FEA0432E4
:1003D000019C43EA0603A4F10C040294009CCDE9BD
:1003E00000B400F0EEF8A2E72DE9F04D81EA030435
:1003F00004F0004B21F0004514464FF0000A23F0B2
:10040000004150EA050220D054EA01021DD0C5F394
:100410000A570246C5F31303C1F31300C1F30A568A
:1004200040F4801543F48013A7EB0608101BD64652
:1004300008F2FD3873EB050002D308F1010801E072
:1004400092185B41B8F1000F03DA00200146BDE8C5
:10045000F08D00204FF48011064684460EE0171BF5
:1004600073EB050705D3121B63EB050306434CEA48
:10047000010C49084FEA300092185B4150EA01072D
:10048000EDD152EA030012D082EA040083EA0501AA
:10049000084303D100224FF0004308E0101BAB419A
:1004A00002D20122002302E06FF0010253101AEB86
:1004B00006004CEB085110EB0A0041EB0B01BDE8C4
:1004C000F04D00F071B8C10F80EAE0700844CA072F
:1004D0009623002100F03BB896230022114600F03D
:1004E00036B80EB5C10F80EAE0700844CA07002193
:1004F00040F233438DE80E000A460B4600F061F8E7
:1005000003B000BD01F0004330B421F0004150EAD7
:10051000010206D00A0DA2F56072C1F31301002A90
:1005200002DC30BC00207047440F44EAC104C10023
:10053000E01830BC00EBC250AFF300800029A8BF28
:100540007047401C490008BF20F00100704710B4FC
:10055000B0FA80FC00FA0CF050EA010404BF10BCB1
:10056000704749B1CCF1200421FA04F411FA0CF1DE
:1005700018BF012121430843A3EB0C01CB1D010649
:10058000000A002BBEBF002010BC704700EBC35018
:1005900010440029A4BF10BC7047401C490008BF8C
:1005A00020F0010010BC704710B5002B08DA401C89
:1005B00041F1000192185B411A4301D120F0010082
:1005C00010BD2DE9F04D92469B4611B1B1FA81F272
:1005D00002E0B0FA80F22032904600F057F804466C
:1005E0000F4640EA0A0041EA0B0153465A460843C7
:1005F00003D120463946BDE8F08D114653EA01008B
:1006000015D0C8F14002504600F04FF805460E469E
:1006100050465946424600F039F8084301D00120BF
:1006200000E00020054346EAE0762C4337430A9871
:100630004FEA4453A0EB08004FEAD4240A304FF0AD
:10064000000244EA47544FEAD72502D5002001466C
:10065000D1E7010510196941DDE908450019694133
:10066000BDE8F04DA0E70000064C074D06E0E0684D
:1006700040F0010394E8070098471034AC42F6D3E9
:10068000FFF75AFDE463000804640008202A04DB35
:10069000203A00FA02F1002070479140C2F1200395
:1006A00020FA03F3194390407047202A04DB203AD4
:1006B00021FA02F00021704721FA02F3D040C2F182
:1006C0002002914008431946704770B501EB0204BF
:1006D00010F8015B15F0070301D110F8013B2A1156
:1006E00006D110F8012B03E010F8016B01F8016B43
:1006F0005B1EF9D12B0705D40023521E0FD401F83D
:10070000013BFAE710F8013B02F10202A1EB0303FF
:1007100003E013F8015B01F8015B521EF9D5A14219
:10072000D6D3002070BD21B1826842F00102826000
:1007300003E0826822F001028260704721B1826882
:1007400042F48072826003E0826822F480728260E8
:100750007047014600208A6812F0040F01D0012082
:1007600000E000207047014600208A6812F0080F60
:1007700001D0012000E000207047000030B50246A3
:100780000020002350680F4C20400D790C6844EA8B
:1007900005242043506090680B4C2040D1E902545E
:1007A0002C434D7944EA450420439060D06A20F4FC
:1007B00070000C7C641EE4B2234340EA0350D06214
:1007C00030BD0000FFFEF0FFFDF7F1FFF0B504467D
:1007D0000D4600200021092D11DDE068A5F10A0673
:1007E00006EB4607072606FA07F18843A5F10A0635
:1007F00006EB460603FA06F10843E0600CE02069C8
:1008000005EB4507072606FA07F1884305EB450681
:1008100003FA06F108432061072A0FDA606B561EBF
:1008200006EB86071F2606FA07F18843561E06EBDD
:10083000860605FA06F10843606322E00D2A0FDA06
:10084000206BD61F06EB86071F2606FA07F18843A2
:10085000D61F06EB860605FA06F10843206310E072
:10086000E06AA2F10D0606EB86071F2606FA07F1DD
:100870008843A2F10D0606EB860605FA06F1084349
:10088000E062F0BD816841F008018160704721B1EC
:10089000826842F4A002826003E0826822F4A0022F
:1008A00082607047816841F004018160704710B533
:1008B000012000F03DFE002000F03AFE10BD00BF18
:1008C000FEE770B500254FF4803400E0641E24B1CB
:1008D000802001F023F80028F8D014B90325284619
:1008E00070BD40F2FF5000F0D1FF2846F8E700004D
:1008F000014600BF0748406B10F0450FFAD040F2A8
:10090000FF50044A90631046406908221040C0B26C
:10091000704700000080014070B500250F48446B0F
:1009200001E00E48446B14F0450FFAD014F0040FA8
:1009300005D00325042000F0A9FF284670BD14F05F
:10094000010F05D00125012000F0A0FF2846F5E7A2
:1009500040F2FF5000F09AFF2846EFE70080014088
:1009600070B500250B48446B01E00A48446B14F055
:10097000450FFAD014F0040F05D00325042000F031
:1009800085FF284670BD40F2FF5000F07FFF2846EB
:10099000F8E70000008001402DE9F04106460F46CF
:1009A0004FF000082248456B01E02148456B15F0E7
:1009B000450FFAD015F0040F07D04FF003080420BC
:1009C00000F064FF4046BDE8F08115F0010F06D04D
:1009D0004FF00108012000F059FF4046F3E700F016
:1009E00097FFB04203D04FF010084046EBE740F2CB
:1009F000FF5000F04BFF002000F0A4FF044614F469
:100A0000604F03D1200C38804046DCE714F4005FCF
:100A100001D01320D7E714F4804F01D01020D2E783
:100A200014F4004F01D00F20CDE74046CBE7000083
:100A30000080014070B500264FF480350F48446BAC
:100A400002E06D1E0D48446B14F0450F01D1002DDE
:100A5000F7D115B114F0040F05D00326042000F0DF
:100A600015FF304670BD14F0400F05D00026402021
:100A700000F00CFF3046F5E73046F3E70080014018
:100A800029B1064A52680243044B5A6004E0034A03
:100A900052688243014B5A6070470000002004E016
:100AA00010B5082000F0E8F878B1082000F024F82C
:100AB00000210F48FFF737FE00210D48FFF7E7FE42
:100AC000022000F019F804F069FD022000F0D4F8CB
:100AD00068B100210648FFF726FE00210448FFF711
:100AE000D6FE022000F008F801200249087310BD6C
:100AF0000024014000D0002010F0805F02D00349A4
:100B0000086001E0024948607047000004040240A8
:100B10000000024021B1026842F00102026004E0DC
:100B200002684FF6FE731A400260704701684FF684
:100B3000FE72114001600021016041608160C1606E
:100B40004B49884208D14A490839496841F00F01A8
:100B5000474A083A51608AE045491431884208D131
:100B600043490839496841F0F001414A083A516067
:100B70007DE03F492831884208D13D49083949681C
:100B800041F470613A4A083A516070E038493C31AA
:100B9000884208D136490839496841F47041344ADD
:100BA000083A516063E032495031884208D13049F7
:100BB0000839496841F470212D4A083A516056E0DD
:100BC0002B496431884208D129490839496841F4E0
:100BD0007001274A083A516049E025497831884236
:100BE00008D123490839496841F07061204A083A20
:100BF00051603CE01F49884206D1011F096841F05D
:100C00000F01021F116032E01A491431884208D1E5
:100C10001849091F096841F0F001164A121F1160B6
:100C200025E014492831884208D11249091F096872
:100C300041F470610F4A121F116018E00D493C31F8
:100C4000884208D10B49091F096841F47041094ADB
:100C5000121F11600BE007495031884207D1054946
:100C6000091F096841F47021024A121F1160704780
:100C7000080002400804024001460020002211F052
:100C8000805F02D0054B1A6801E0054B1A680A42E2
:100C900001D0012000E00020704700000004024065
:100CA000000002401AB103680B43036002E00368CE
:100CB0008B430360704710B50022026847F6F0735B
:100CC0009A430C6A8B6823430C6923434C69234382
:100CD0008C692343CC6923434C6A23438C6A2343A6
:100CE0001A430260CB6843600B6883604B68C36043
:100CF00010BD704710B5002003F002F810BD0000D1
:100D000010B51348046814F4806F02D00A2002F072
:100D1000F7FF14F4006F02D00B2002F0F1FF14F47F
:100D2000805F02D00C2002F0EBFF14F4005F02D0D1
:100D30000D2002F0E5FF14F4804F02D00E2002F0E7
:100D4000DFFF14F4004F02D00F2002F0D9FF10BDD6
:100D50001404014010B5012002F0D2FF10BD10B5FF
:100D6000022002F0CDFF10BD10B5032002F0C8FF35
:100D700010BD10B5042002F0C3FF10BD10B510481F
:100D8000046814F0200F02D0052002F0B9FF14F01F
:100D9000400F02D0062002F0B3FF14F0800F02D003
:100DA000072002F0ADFF14F4807F02D0082002F08B
:100DB000A7FF14F4007F02D0092002F0A1FF10BDAC
:100DC00014040140002123498279002A3AD00A46BE
:100DD000126803689A430B461A600A1D126803687A
:100DE0009A430B1D1A60027911440A6803681A437A
:100DF0000A60184A0832126803689A43154B083390
:100E00001A601A1D126803689A43124B0C331A6059
:100E10004279102A0ED11A1F126803681A430D4B2B
:100E200008331A601A1D126803681A43094B0C3301
:100E30001A600DE00749427911440A6803681A43B1
:100E40000A6005E0027911440A6803689A430A605F
:100E500070470000000401402DE9FC4107460D46A3
:100E60000026002400200090019008205A490860C4
:100E700010204860402088600020C8604FF48060E7
:100E80000861084600F098FD1020FFF731FD044688
:100E900014B12046BDE8FC815048008800044E494A
:100EA000086037204860402088600020C8604FF408
:100EB00080600861084600F07FFD3720FFF718FDCD
:100EC00004460CB12046E5E74FF0FF304449086086
:100ED00008204860302088600220C8600020086137
:100EE00001204861084600F0E9FC00203A4908600A
:100EF00033204860402088600020C8604FF4806044
:100F00000861084600F058FD3320FFF7F1FC044665
:100F10000CB12046BEE709E04FF4001000F0FEFCE3
:100F200020B100F043FD4DF82600761C2D48406BA3
:100F300040F22A610842EFD0082000F0EFFC28B10F
:100F4000082000F0A3FC04242046A3E7022000F0C0
:100F5000E5FC28B1022000F099FC0224204699E724
:100F6000202000F0DBFC28B1202000F08FFC0624BC
:100F700020468FE74FF4007000F0D0FC30B14FF402
:100F8000007000F083FC0724204683E740F2FF5006
:100F900000F07CFC00980006009901F47F4140EAD3
:100FA0000120009901F47F0140EA1120009940EAF4
:100FB0001160686001980006019901F47F4140EAE0
:100FC0000120019901F47F0140EA1120019940EAD2
:100FD0001160286020465DE7B0D00020A401002009
:100FE000C4D000200080014030B500228B071C0FC8
:100FF0000F2303FA04F20B4B8C1053F82430934365
:10100000084C8D1044F8253023468C1053F82430BA
:101010008C07240F00FA04F42343024C8D1044F88B
:10102000253030BD080001402DE9F0410246002581
:101030000026002000230024002791F803C00CF0B4
:101040000F0591F803C01CF0100F03D091F802C0F7
:101050004CEA050591F800C0BCF1000F31D01468CE
:1010600000202BE04FF0010C0CFA00F3B1F800C0A7
:101070000CEA03069E4220D183004FF00F0C0CFABD
:1010800003F7BC4305FA03FC4CEA040491F803C0DF
:10109000BCF1280F06D14FF0010C0CFA00FCC2F88D
:1010A00014C00AE091F803C0BCF1480F05D14FF01D
:1010B000010C0CFA00FCC2F810C0401C0828D1D367
:1010C0001460B1F800C0BCF1FF0F34DD546800209B
:1010D0002EE000F1080C4FF0010808FA0CF3B1F80B
:1010E00000C00CEA03069E4221D183004FF00F0C92
:1010F0000CFA03F7BC4305FA03FC4CEA040491F82C
:1011000003C0BCF1280F05D100F1080C08FA0CF857
:10111000C2F8148091F803C0BCF1480F07D100F168
:10112000080C4FF0010808FA0CF8C2F81080401CB7
:101130000828CED35460BDE8F0814FF6FF710180DE
:10114000022181700421C170704700BFFEE70000DA
:1011500010B5024803F064FB10BD00001C00002025
:1011600010B5024803F06FFB10BD00001C0000200A
:1011700010B5024803F054FB10BD00002C00002005
:1011800010B5024803F05FFB10BD00002C000020EA
:1011900021B1028842F48062028004E002884FF6A6
:1011A000FF331A400280704721B1028842F00102E9
:1011B000028004E002884FF6FE731A4002807047F6
:1011C00021B1028842F48072028004E002884FF666
:1011D000FF631A400280704721B1028842F4007216
:1011E000028004E002884FF6FF531A4002807047E5
:1011F00030B503460020002400221A460C0F21F0CF
:101200007F410CB1143201E0090C183215680D420F
:1012100001D0012000E0002030BD10B501460020C3
:10122000002300228B8A0A8B120443EA020424F072
:101230007F4010BD1AB183880B43838002E083880E
:101240008B438380704700002DE9F04385B004464E
:101250000D460026B1460427DFF8CC80A6884FF65D
:10126000C0700640684600F069F9DDF808802F4834
:10127000B8FBF0F01FFA80F946EA0906A68020883C
:101280004FF6FE71084020800026294928688842D0
:101290000CD828684000B8FBF0F087B2042F00DAC1
:1012A00004273E4309F10100208427E0E888A0F5E7
:1012B0003F41FF3906D1286800EB4000B8FBF0F051
:1012C00087B209E0286800EBC00101EB0010B8FB11
:1012D000F0F087B247F480473805000D01D147F0A0
:1012E000010747F4004006434FF4967009FB00F0F5
:1012F0004FF47A7190FBF1F0401C2084A683208883
:1013000040F00100208026884FF6F5300640A8887E
:101310006989084306432680A889298908432081D2
:1013200005B0BDE8F083000000127A0040420F00D3
:10133000A08601000146088AC0B2704712B141F090
:10134000010102E04FF6FE731940018270470182ED
:10135000704741F288310160002181804BF6FF71B6
:10136000C1800021018141814FF48041818170471A
:1013700000BFFEE77047000070B5002100230F2278
:10138000C4780CB3164C246804F4E064C4F5E0643B
:10139000210AC1F10403CA40447804FA03F18478B5
:1013A0001440214309010F4C0678A155047804F03C
:1013B0001F050124AC4005786D114FF0E02606EBC7
:1013C0008505C5F8004109E0047804F01F050124F3
:1013D000AC40054D0678761145F8264070BD0000FA
:1013E0000CED00E000E400E080E100E010B510202A
:1013F00002F086FC10BD0000014908627047000041
:1014000000000E420349096841EA8001014A116067
:10141000704700000070004010B5024600200C4BE1
:10142000186820F00300104318600A4B1B6843F053
:101430000403084C2360012901D130BF00E020BF24
:10144000044B1B6823F00403024C236010BD000012
:101450000070004010ED00E001460020034A526891
:101460000A4201D0012000E00020704700700040D7
:10147000014908617047000000000E42014600204B
:10148000034A106820F0E000084310607047000035
:10149000007000407047000001460020034A506879
:1014A00020F44040084350607047000000100240A4
:1014B00029B1064A52690243044B5A6104E0034AC7
:1014C00052698243014B5A6170470000001002408C
:1014D00029B1064AD2690243044BDA6104E0034AA7
:1014E000D2698243014BDA6170470000001002406C
:1014F00029B1064A12690243044B1A6104E0034A07
:1015000012698243014B1A617047000000100240CB
:1015100029B1064A92690243044B9A6104E0034AE6
:1015200092698243014B9A617047000000100240AB
:1015300001490860704700004004424230B5002174
:101540000022002400232D4D6D6805F00C0121B10F
:10155000042905D0082923D105E0294D056022E0A2
:10156000274D05601FE0254D6D6805F47012234D71
:101570006D6805F48034022505EB92421CB9214DBB
:10158000554305600BE01D4D6D6815F4003F03D019
:101590001C4D5543056002E0194D5543056002E0BE
:1015A000174D056000BF00BF144D6D6805F0F001D8
:1015B0000909154D6B5C0568DD4045600F4D6D6890
:1015C00005F4E061090A104D6B5C4568DD408560FB
:1015D0000A4D6D6805F46051C90A0B4D6B5C456896
:1015E000DD40C560054D6D6805F44041890B074D30
:1015F0006B5CC568B5FBF3F5056130BD00100240BA
:1016000000127A0000093D00B4010020C40100204E
:1016100010B501460022002300204A11012A02D100
:10162000094C236806E0022A02D1074C236A01E034
:10163000054C636A01F01F02012494401C4201D052
:10164000012000E0002010BD0010024000210A4AE5
:1016500011700A4A82F82010012802D0042808D10B
:1016600003E00121044A117004E00521024A1170CF
:1016700000E000BF00BF7047201002400010024091
:1016800001490860704700003C0442420249096A6F
:101690000143014A1162704700100240034800886C
:1016A00040F0100001490880704700000428004005
:1016B000034800884FF6EF710840014908807047E1
:1016C00004280040002103480188001F008841EAE7
:1016D000004070471C28004010B5112002F010FB9C
:1016E00010BD000029B1064A12880243044B1A803B
:1016F00004E0034A12888243014B1A8070470000BD
:101700000028004000B50246FFF7C8FF100C03494F
:101710000880091D0A80FFF7CBFF00BD1828004094
:1017200000B50246FFF7BAFFC2F303400349088041
:10173000091D0A80FFF7BCFF00BD0000082800401B
:1017400000BF0348008810F0200FFAD07047000057
:1017500004280040064800884FF6F7710840044905
:10176000088000BF0248008810F0080FFAD07047C8
:10177000042800407CB5054600240020009001901C
:1017800000F0E0F810F0007F02D00E2420467CBD6F
:101790003C49098888B26946FFF75EFB04460CB1F4
:1017A0002046F4E7012D35D1019810F4802F2ED07A
:1017B00034480088000434490860372048604020DD
:1017C00088600020C860A8020861084600F0F4F8AC
:1017D0003720FFF78DF804460CB12046D7E70220EA
:1017E0002949086006204860402088600020C860C1
:1017F0004FF480600861084600F0DEF80620FFF72D
:1018000077F804460CB12046C1E72046BFE72524FF
:101810002046BCE7019810F4803F2FD0194800887B
:101820000004194908603720486040208860002083
:10183000C8604FF480600861084600F0BDF83720AA
:10184000FFF756F804460CB12046A0E700200E49E9
:10185000086006204860402088600020C8604FF47F
:1018600080600861084600F0A7F80620FFF740F8FE
:1018700004460CB120468AE7204688E72524204606
:1018800085E70000A4010020B0D000200149886352
:1018900070470000008001400149886370470000E4
:1018A000008001400149086070470000A0003042FC
:1018B00001490860704700008C05304200210A4B46
:1018C00002685A6242689A621A46D16A21F0F701A8
:1018D000D0E902231A4303691A4343691A431143A7
:1018E000014AD16270470000008001400020064993
:1018F000086048608860C86048628862C8620348BF
:1019000088630020C863704700800140FF07C00063
:1019100001480069C0B270470080014001460020C4
:10192000034A526B0A4201D0012000E000207047B8
:10193000008001400248006800F00300704700008A
:10194000008001400146002201480A1810687047D3
:101950001480014010B500F075FC10BD29B1064A95
:10196000D26B0243044BDA6304E0034AD26B824336
:10197000014BDA63704700000080014000210A4AF1
:10198000516847F6FF629143027D83681A434368BA
:101990001A43C3681A4303681A4303691A4311437D
:1019A000014A516070470000008001400148006812
:1019B00070470000808001400021094B02689A6056
:1019C0001A46D1686FF30A01D0E901231A43C368AC
:1019D0001A4303691A431143014AD160704700005A
:1019E000008001400549096821F00301034A1160A4
:1019F00011460968014311607047000000800140F2
:101A00000120704770B5044600252148006803286E
:101A100002D12725284670BD1D48006838B11C48F2
:101A20000068012803D01A48006802282ED1B4F5B6
:101A3000805F02D127252846EDE7B4F5006F14D169
:101A40000120FFF797FE054605BB012011490875E7
:101A500000200860486088604FF40060C860002083
:101A600008610846FFF78AFF10E00020FFF782FEBA
:101A700005465DB9012007490875002008604860E7
:101A80008860C86008610846FFF778FF2846C2E70B
:101A9000A001002098D0002030B50146002000228F
:101AA000B74B1B7881F84E30B64B1B88A1F84C30F1
:101AB000B54B1B681A0E93090B70C2F383034B706E
:101AC00002F003038B70B04B1B68C3F30742CA706C
:101AD000AD4B1B88C3F307220A71AB4B1A784A71CE
:101AE0005B681A0E1301CB80A74B5B68C3F30742F8
:101AF000CB8843EA1213CB8002F00F030B72A24B88
:101B00009B88C3F30722D3094B72C2F380138B72F5
:101B1000C2F34013CB72C2F300130B7300234B7359
:101B2000974B1B681BB1964B1B68012B3CD193074D
:101B30001B0D0B61944B1A790B6943EA82030B610D
:101B4000914B9B681A0E0B6943EA92130B61C2F327
:101B5000C2030B7502F007034B758B4B9B68C3F3F5
:101B6000074253098B75C2F38203CB7593075B0F52
:101B70000B76854B1B89C3F307220B7E43EAD213F6
:101B80000B760B695B1C4B640C7E4B6CA41C012513
:101B9000A5406B434B640C7A0123A3408B64D1E9CD
:101BA000113463434B6421E0754B1B68022B1DD13C
:101BB000754B1A7993069B0A0B61734B9B681A0E3F
:101BC0000B6943EA02230B616F4B9B68C3F3074227
:101BD0000B6913430B616C4B1B89C3F307220B6921
:101BE0005B1CDB044B644FF400738B64C2F3801303
:101BF00001F8193F93065B0E4B70634B1A7A4B78D2
:101C000043EAD2134B7002F07F038B705E4BDB68AC
:101C10001A0ED309CB70C2F341130B71C2F38203C6
:101C20004B7193071B0F8B71574BDB68C3F3074254
:101C30008B7943EA92138B71C2F34013CB7100236B
:101C40000B7202F001034B724F4B9B89C3F30722C7
:101C5000D3098B72C2F38013CB72C2F340130B73A0
:101C6000C2F300134B73C2F381038B7302F00303BF
:101C7000CB73454B1A7B53080B7401234B74434BB6
:101C80001B681A0ECA74A1F11901404B1B68C3F3FB
:101C900007424FEA0224CC853C4B1B88C3F3072242
:101CA000CB8D43EA0203CB85384B1A784FEA0264A6
:101CB0000C635B684FEA13620B6B43EA02440C63EC
:101CC000324B5B68C3F307420B6B43EA02240C639D
:101CD0002E4B9B88C3F307220B6B43EA02030B6373
:101CE0002A4B1A794FF034035A54284B9B684FEA19
:101CF00013624FF035035A54244B9B68C3F30742D9
:101D00004FEA02648C63214B1B89C3F307228B6B60
:101D100043EA02448C631D4B1A7A8B6B43EA02241C
:101D20008C631A4BDB684FEA13628B6B43EA020346
:101D30008B63164BDB68C3F307424FF03C035B5CDD
:101D400043EA12144FF03C035C544FEA02734FEA2B
:101D50001354CC870D4B9B89C3F30722CB8F43EAE7
:101D60000203CB87094B1A7B4FEA52044FF0400322
:101D70005C544FF001044FF041035C5430BD00004F
:101D8000A0010020A401002018D0002028D00020AD
:101D900008B500200090FFF733FE012809D16846FE
:101DA00000F0A0FB08B1FF2008BD0098C0F343205D
:101DB000FAE7FF20F8E710B50424FFF7E9FF04462F
:101DC000042C01D1002010BDFF2C01D10220FAE724
:101DD0000120F8E710B5002400F036F9FFF786FD82
:101DE00000F06CF904460CB1204610BD00F02AF852
:101DF00004460CB12046F8E7012010490875002080
:101E0000086048608860C86008610846FFF7B6FD52
:101E10001CB90B48FFF740FE044634B90849B1F835
:101E20004C10080400F044FB044624B94FF4006051
:101E3000FFF7E8FD04462046D7E7000098D00020D1
:101E400048D0002038B5002401200090FFF772FD33
:101E500010B92524204638BD44480068042828D0FD
:101E600000204349086002204860C02088600020AC
:101E7000C8604FF4806008610846FFF79DFDFEF7DB
:101E80004BFD04460CB12046E5E70020FFF75AFD64
:101E9000384908600420FFF755FD3649486008209E
:101EA000FFF750FD334988600C20FFF74BFD3149A7
:101EB000C8602E48006858B12C480068012807D037
:101EC0002A480068062803D028480068022816D14E
:101ED00000202749086003204860402088600020D7
:101EE000C8604FF4806008610846FFF765FD6946E9
:101EF0000320FEF751FD04460CB12046ABE71B481A
:101F0000006804282ED0BDF800001B490860BDF809
:101F1000000000041649086009204860C02088605D
:101F20000020C8604FF4806008610846FFF744FD58
:101F3000FEF7F2FC04460CB120468CE70020FFF7C8
:101F400001FD0E4908600420FFF7FCFC0B494860C6
:101F50000820FFF7F7FC094988600C20FFF7F2FC26
:101F60000649C8600024204675E70000A001002053
:101F7000B0D0002028D00020A401002018D00020DC
:101F800030B58BB005460C461348FEF7B5FD002171
:101F90001248FEF7BFFD1248009001950020029004
:101FA000A0080390002004908020059080000690F7
:101FB00080000790002008904FF400500990002006
:101FC0000A9069460548FEF776FE01210348FEF7B0
:101FD000A1FD0BB030BD000000F000104404024031
:101FE0008080014030B58BB005460C461348FEF7A3
:101FF00083FD00211248FEF78DFD124800900195E7
:1020000010200290A00803900020049080200590EA
:102010008000069080000790002008904FF4005048
:10202000099000200A9069460548FEF744FE012108
:102030000348FEF76FFD0BB030BD000000F000104C
:1020400044040240808001401CB501218802FFF752
:102050002FFA01210220FFF72BFA01213020FFF790
:1020600057FA01213020FFF753FA4FF4F850ADF83A
:10207000040003208DF8060018208DF8070001A940
:102080000C48FEF7D1FF0420ADF8040001A90A486E
:10209000FEF7CAFF31208DF8000000208DF8010006
:1020A0008DF8020001208DF803006846FFF764F9FF
:1020B0001CBD000000100140001401402DE9F0415A
:1020C0000024002600250027A0463C205949087519
:1020D0000020086048608860C86008610846FFF713
:1020E0004DFC0320FFF77EFC0120FFF7DBFB002007
:1020F0005149086048608860C8604FF4806008619A
:102100000846FFF759FCFEF7DCFB044614B12046F5
:10211000BDE8F0814FF4D570474908600820486059
:10212000402088600020C8604FF480600861084645
:10213000FFF742FCFEF77EFC04462CB901203F4924
:1021400008604FF0804812E000203B4908603720CB
:102150004860402088600020C8604FF480600861BB
:102160000846FFF729FC3720FEF7C2FB0446002093
:102170003149086037204860402088600020C860EE
:102180004FF4806008610846FFF716FC3720FEF721
:10219000AFFB0446002C4AD136E0002026490860F7
:1021A00037204860402088600020C8604FF480607D
:1021B00008610846FFF700FC3720FEF799FB04464C
:1021C0000CB12046A4E71E4848EA00001A490860FE
:1021D00029204860402088600020C8604FF480605B
:1021E00008610846FFF7E8FBFEF7BAFB04460CB1AE
:1021F00020468DE70020FFF7A5FB0646012080EA78
:10220000D67080F001076D1C1FB94FF6FF70854234
:10221000C3D34FF6FF70854202D31B24204677E7D5
:1022200006F08040060002D00220044908602046E3
:102230006EE7000098D00020B0D00020A001002060
:102240000000108010B51148006801280BD1002053
:102250000F49886040F24C40C8600C20FEF748FBF4
:102260000C49087002E000200A4908704FF48070A1
:10227000FFF712FB00214FF48070FFF76FFB012086
:10228000054908600348007810BD0000A80100203F
:1022900000800140AC010020B00100202DE9F04198
:1022A00007460D4614460026002040490870404964
:1022B0000860404908604049C862404800680228F8
:1022C00001D104026D0A4FF0FF303D490860002043
:1022D00048608860C860086148610846FFF7EEFA08
:1022E0000020FFF7E5FA0020FFF72CFB10F0007F3D
:1022F00003D00E263046BDE8F081002C1BDDB4F57E
:10230000006F18DC601E204215D12E48046010209A
:102310002C494860402088600020C8604FF48060ED
:1023200008610846FFF748FB1020FEF7E1FA064671
:1023300026B13046DFE726263046DCE74FF0FF3097
:102340001F49086008464460204600F0F0FF000185
:102350001B4988600220C860002008610120486194
:102360000846FFF7ABFA1748056011201549486089
:10237000402088600020C8604FF4806008610846F3
:10238000FFF71AFB1120FEF7B3FA06460EB13046EE
:10239000B1E701210802FFF7E1FA0120FFF788FA0F
:1023A00021463846FFF7ECFD3046A4E7AC0100209B
:1023B000B0010020A801002000800140A001002001
:1023C000C4D00020B0D000202DE9F04180460D4659
:1023D00014461E46002700202E4908702E4908602A
:1023E00001202E49086000202D49C8622D48006850
:1023F000022801D104026D0A2B48046010202A49EA
:102400004860402088600020C8604FF48060086108
:102410000846FFF7D1FA1020FEF76AFA074617B10F
:102420003846BDE8F0814FF0FF302049086006FBD8
:1024300004F04860902088600220C8600020086195
:10244000012048610846FFF739FA17480560122055
:1024500015494860402088600020C8604FF48060C3
:1024600008610846FFF7A8FA1220FEF741FA07466E
:102470000FB13846D5E701210802FFF76FFA0120B6
:10248000FFF716FA06FB04F14046FFF779FD3846E0
:10249000C7E70000AC010020B0010020A801002027
:1024A00000800140A0010020B0D00020C4D0002056
:1024B00070B5044600250A480460072008494860B2
:1024C000402088600020C8604FF4806008610846A2
:1024D000FFF772FA0720FEF70BFA0546284670BD93
:1024E000B0D0002070B5044600250A4800880004DA
:1024F0000949886040F24D40C8600D20FEF7F8F9A8
:1025000005460DB1284670BD034840692060284645
:10251000F9E70000A40100200080014010B500BFD1
:10252000084800680028FBD00748007810B106482A
:10253000007810BD00BFFFF73EFC0028FBD100BFB4
:10254000F7E70000B0010020AC0100202DE9F041C8
:1025500007460C46154600260020214908702149EF
:102560000860214908602149C862214800680228A2
:1025700001D10502640A1F48046018201D49486003
:10258000402088600020C8604FF4806008610846E1
:10259000FFF712FA1820FEF7ABF9064616B13046DF
:1025A000BDE8F0814FF0FF301349086008464560F0
:1025B000902088600020C8600861012048610846BA
:1025C000FFF77CF901210802FFF7C8F929463846D0
:1025D000FFF708FD0120FFF76BF93046E0E7000048
:1025E000AC010020B0010020A801002000800140C3
:1025F000A0010020B0D00020C4D000202DE9F0417F
:1026000080460E4617461C460025002039490870B2
:102610003949086001203949086000203849C862FA
:1026200038480068022801D10702760A3648008837
:102630000004364908603720486040208860002048
:10264000C8604FF4806008610846FFF7B5F937208D
:10265000FEF74EF9054615B12846BDE8F0812B4836
:102660000460172029494860402088600020C86025
:102670004FF4806008610846FFF79EF91720FEF7C7
:1026800037F905460DB12846E7E7204806601920CE
:102690001E494860402088600020C8604FF4806078
:1026A00008610846FFF788F91920FEF721F9054669
:1026B0000DB12846D1E74FF0FF301549086004FB03
:1026C00007F04860902088600020C8600861012001
:1026D00048610846FFF7F2F801210802FFF73EF9CA
:1026E0000120FFF7E5F804FB07F14046FFF77AFC0D
:1026F0002846B2E7AC010020B0010020A80100206C
:1027000000800140A0010020A4010020B0D00020E2
:10271000C4D00020704710B500F002F810BD0000D2
:10272000002100202C4A126842F480322A4B1A60A1
:1027300000BF294A126802F40030491C10B9B1F5F3
:10274000A06FF6D1244A126812F4003F01D0012094
:1027500000E0002001283ED1204A126842F0100219
:102760001E4B1A601A46126822F003021A601A46BB
:1027700012681A60184A5268174B5A601A46526813
:102780005A601A4652685A601A46526822F47C12FD
:102790005A601A46526842F498125A601A461268F1
:1027A00042F080721A6000BF0B4A126812F0007F7C
:1027B000FAD0094A526822F00302074B5A601A46BF
:1027C000526842F002025A6000BF034A526802F0A7
:1027D0000C02082AF9D17047001002400020024084
:1027E00030B50146B1F1807F01D3012030BD21F029
:1027F0007F40401E4FF0E022506150170F2200280A
:1028000007DA13071D0E094B00F00F04241F1D5596
:1028100003E013071C0E064B1C5400BF00204FF0B2
:10282000E0229061072010610020DFE718ED00E052
:1028300000E400E010B523480078032839D10024D3
:10284000214802F09DFF18B11F4803F0ADF80124A4
:102850001D4803F06DF818B11B4803F013F901246B
:1028600002F0FEFE10B102F0BDFE012402F07EFF78
:1028700010B102F047FF01240CB101F033FE124801
:1028800003F05AF81148006810F0010F02D10E4809
:1028900003F065F80D48006810F0030F01D102F055
:1028A0000BFF02F07BFE09480068401C07490860E6
:1028B00000E000BF00BF06480068401C04490860F3
:1028C00010BD0000180000203C0000200400002083
:1028D0000000002010B5002100200022214B5B6881
:1028E00003F00C0121B1042906D0082928D107E002
:1028F0001D4B1E4C236027E01B4B1C4C236023E028
:10290000184B5B6803F47010164B5B6803F480325D
:10291000022303EB904022B9154B4343134C236031
:102920000DE0104B5B6813F4003F04D0104B4343A1
:102930000E4C236003E00C4B43430C4C236003E03C
:10294000094B0A4C236000BF00BF064B5B68C3F312
:102950000313084CE15C054B1B68CB40034C236020
:1029600010BD00000010024000127A00C8010020D3
:1029700000093D00CC01002010B51348006840F06C
:1029800001001149086008464068104908400E4996
:102990004860084600680E4908400B490860084630
:1029A000006820F4802008600846406820F4FE009B
:1029B00048604FF41F008860FFF7ADFE4FF00060E5
:1029C0000449086010BD0000001002400000FFF83C
:1029D000FFFFF6FE08ED00E010B50121880700F0CA
:1029E00040F838B30121880700F02CF800220121BB
:1029F000880700F047F800214FF0804000F025F8EC
:102A00000D48007810B1012813D107E00B48806809
:102A100010F4005F01D000F021FA0AE00748806856
:102A200010F4005F04D100F02DFA01200449086081
:102A300000BF00BF10BD00006C010020001001406D
:102A400068010020CA430282704721B1028842F027
:102A50000102028004E002884FF6FE731A400280F1
:102A6000704730B50246002000230024158A05EA8D
:102A70000103958905EA010413B10CB1012000E0BE
:102A8000002030BD1AB183890B43838102E0838922
:102A90008B438381704701858282704700220288C0
:102AA0001D4B98420ED01D4B98420BD0B0F1804F79
:102AB00008D01B4B984205D01A4B984202D01A4BB3
:102AC000984204D14FF68F731A404B881A43174B24
:102AD000984207D0164B984204D04FF6FF431A4055
:102AE000CB881A4302808B8883850B8803850A4B29
:102AF00098420BD0094B984208D00E4B984205D013
:102B00000D4B984202D00D4B984201D10B7A0386AF
:102B10000123838270470000002C014000340140F3
:102B20000004004000080040000C0040001000407D
:102B300000140040004001400044014000480140B2
:102B400010B5122001F0DCF810BD00BFFEE702E076
:102B500008C8121F08C1002AFAD170477047002028
:102B600001E001C1121F002AFBD170472DE9F74F88
:102B70008AB0074688467C68D8F80450D7F804B075
:102B80000C984068099038880690B8F80260B7F849
:102B900002A0002004900698029000BF04990998B2
:102BA00000EB810008900596D8F8045000200390AF
:102BB00000BF002007905C464FEAAA092FE001CC35
:102BC0002968FDF729FB00900799FDF7CDFA0790DA
:102BD00005EB860501CC2968FDF71EFB00900799DF
:102BE000FDF7C2FA079005EB860501CC2968FDF7D1
:102BF00013FB00900799FDF7B7FA079005EB8605E0
:102C000001CC2968FDF708FB00900799FDF7ACFAA5
:102C1000079005EB8605A9F101001FFA80F9B9F1CB
:102C2000000FCCD10AF003090EE001CC2968FDF7B2
:102C3000F3FA00900799FDF797FA079005EB8605E0
:102C4000A9F101001FFA80F9B9F1000FEDD1DDE91A
:102C5000070108600898001D08900398401C80B286
:102C60000390D8F80410039801EB80050598401EE6
:102C700080B20590059800289BD10498304480B21A
:102C800004900BEB8A0B0298401E80B202900298CF
:102C9000002883D1019001980DB0BDE8F08F2DE997
:102CA000F04704460D4617464FF00008AE0814E002
:102CB00002CC4046FDF758FA804602CC4046FDF76C
:102CC00053FA804602CC4046FDF74EFA804602CCCD
:102CD0004046FDF749FA8046761E002EE8D105F001
:102CE000030605E002CC4046FDF73EFA8046761E1C
:102CF000002EF7D12846FDF7EFFB814649464046B6
:102D0000FDF7C0FA3860BDE8F087000004480068AD
:102D100020B1002002490860012070470020FCE734
:102D20006801002000B58BB001A8FEF707FC012167
:102D30000846FEF7CDFB01211020FEF7E9FB01213B
:102D40000846FEF7E5FB0AA8FEF7F7F904208DF820
:102D50002B00C002ADF828000AA91F48FEF764F94D
:102D60000C220D211C4800F019FF00221B490D20E8
:102D700000F0B6FF4FF6FF70ADF81C000020ADF874
:102D80001800ADF81E00ADF81A0006A94FF08040FB
:102D9000FFF784FE32210398B0FBF1F00004401EDF
:102DA0000F4908801C208DF8240000208DF8250094
:102DB00001208DF826008DF8270009A8FEF7DCFA1F
:102DC0000548806810F4005F02D000F047F801E089
:102DD00000F058F80BB000BD00100140E52D0008D0
:102DE0006E01002010B504461948007810B1012882
:102DF0002AD114E01748806810F4005F00D110BD9C
:102E00001548006820F4005013490860081D006848
:102E100020F40050091D086000F048F814E00D4847
:102E2000806810F4005F00D0E9E70B48006820F4E8
:102E3000005009490860081D006820F40050091D71
:102E4000086000F033F800BF00BF00BFD7E7000004
:102E50006C010020001001400804014001200749D6
:102E600008700748006820F4005005490860081DF4
:102E7000006840F40050091D086070476C01002094
:102E8000080401400020074908700748006840F422
:102E9000005005490860081D006820F40050091D15
:102EA000086070476C0100200804014010B5012241
:102EB000094801889007FFF7EEFD00204FF08041A0
:102EC000888401218807FFF7C0FD01221146900781
:102ED000FFF7D8FD10BD00006E01002070B504465C
:102EE0000D46607801232A4604F1300100F0EDFC24
:102EF00008B1032070BD94F82E1294F82F0241EA15
:102F00000020A0F52A41553901D00220F2E794F8BB
:102F10006900010694F8680041EA004194F86700EE
:102F200041EA002094F86610084320F07F400E49E3
:102F3000884201D10020DDE794F88500010694F86D
:102F4000840041EA004194F8830041EA002094F8AB
:102F50008210084320F07F400349884201D10020BD
:102F6000C8E70120C6E7000046415400024600E0E1
:102F7000521C107810B110788842F9D1107870473F
:102F80002DE9F74F88B00898006801900198007803
:102F900030380790079809280AD8019840783A28CD
:102FA00006D10198801C019008990198086001E001
:102FB00000200790079818B10B200BB0BDE8F08FE8
:102FC000D049079851F82040099804600CB90C20AA
:102FD000F3E7207878B1607800F0A0FC804618F024
:102FE000010F08D10A9820B118F0040F01D00A206F
:102FF000E3E70020E1E70020207007986070607828
:1030000000F034FC804618F0010F01D00320D4E713
:103010000A9820B118F0040F01D00A20CDE74FF034
:10302000000B59462046FFF759FF054600BF012D0A
:1030300021D14FF0000ABAF1000F03D0AAF101002C
:1030400000F0FF0A4FF4DF7000EB0A1104F13000CA
:103050000F18387978B1F87A0106B87A41EA004158
:10306000787A41EA0020397A40EA010B5946204635
:10307000FFF734FF0546032D01D101209DE70DB177
:103080000D209AE73B20015D94F83C0041EA0020C6
:10309000B0F5007F01D00D208FE74620015D94F848
:1030A000470041EA0029B9F1000F0ED194F857000A
:1030B000010694F8560041EA004194F8550041EAAF
:1030C000002094F8541040EA0109C4F81C904020F4
:1030D000065DE670012E03D0022E01D00D206CE7B4
:1030E00009FB06F93D20005D0646A07016B1701E72
:1030F000304201D00D2060E74120015D94F842008C
:1031000041EA00202081207A10F00F0F01D00D201D
:1031100053E74320015D94F8440041EA0020069003
:10312000069870B994F85300010694F8520041EAE9
:10313000004194F8510041EA002094F850100843EF
:1031400006903E20015D94F83F0041EA0020029085
:10315000029808B90D2030E702984844218900EB15
:1031600011100590DDE90501814201D20D2024E70F
:10317000DDE90510401AA178B0FBF1F00490049845
:1031800008B90D2019E7012540F6F6710498884228
:1031900000D302254FF6F6710498884200D3032528
:1031A0000498801CA06105985844A0620298584475
:1031B0002062032D16D1208908B10D20FDE694F878
:1031C0005F00010694F85E0041EA004194F85D005A
:1031D00041EA002094F85C1008436062A069800016
:1031E000039014E0208908B90D20E6E6206A4844DF
:1031F0006062022D02D1A069400007E0207E00F04D
:103200000100A16901EB410100EB51000390E1696C
:10321000039800F2FF10B1EB502F01D20D20CCE645
:103220004FF0FF3020610020E060032D5CD1607121
:1032300094F8601094F8610041EA002058446061FD
:103240006078012304F13001626900F03EFBE8BBC5
:1032500094F82E1294F82F0241EA0020A0F52A419A
:10326000553941D13320005D01063220005D41EA2D
:1032700000413120005D41EA002094F830100843FD
:103280002149884230D194F81702010694F81602B9
:1032900041EA004194F8150241EA002094F8141222
:1032A00008431A4988421FD194F81F02010694F876
:1032B0001E0241EA004194F81D0241EA002094F800
:1032C0001C120843E06094F81B0200E00CE00106C9
:1032D00094F81A0241EA004194F8190241EA0020E8
:1032E00094F8181208432061257009480088401C92
:1032F00080B207490880E0800020E062207100BFB2
:103300005BE60000DC0100205252614172724161B3
:10331000E00100200246891E9069801E884201D883
:10332000002070479378906A01FB0300F9E701469B
:10333000002002E04910421CD0B20129FAD17047A6
:1033400030B5034600200FE053F82040094D45F802
:10335000204051F82040084D45F8204052F82040C8
:10336000064D45F82040401CFA28EDDB0124044DB1
:103370002C6030BD3CC4002024C800200CCC0020B0
:103380002C0100202DE9F04704468946B9F1000FD1
:1033900006D1E76817B1A069B84211D801270FE03C
:1033A0004946204601F0D2F80646022E02D20120FC
:1033B000BDE8F087A069B04201D93046F8E74F4632
:1033C0003D4600BF6D1CA069A84204D80225BD423D
:1033D00001D90020ECE72946204601F0B7F806465F
:1033E00006B909E0701C01D0012E01D13046DFE79B
:1033F000BD42E7D10020DBE700BF6FF070422946F5
:10340000204602F08EFC8046B8F1000F08D1B9F1D9
:10341000000F05D02A464946204602F082FC80462D
:10342000B8F1000F09D1E5602069401C0DD020697A
:10343000401E20610120607107E0B8F1010F02D148
:103440004FF0FF3000E0012005462846B0E70000BD
:103450002DE9F35F8A46DAF8007000E07F1C3878C7
:103460002F28FBD038785C28F8D0009886690B228A
:103470002021304602F012FC0025A946AB464FF051
:10348000080800BF58460BF1010B3C5C202C03DD03
:103490002F2C01D05C2C00D136E02E2C01D0C14560
:1034A0000ED3B8F1080F01D12E2C02D00620BDE8B2
:1034B000FC9F4FF008094FF00B08A806050EE1E746
:1034C000802C05DB45F00305A4F1800023490C5C4A
:1034D000214623A0FFF74AFD08B10620E7E7412C6B
:1034E00004DB5A2C02DC45F0020508E0612C06DB07
:1034F0007A2C04DC45F00105A4F12000C4B2484652
:1035000009F101093454BDE700BF07EB0B00CAF80D
:103510000000202C01DC042000E000200446B9F16A
:10352000000F01D10620C2E73078E52801D105203F
:103530003070B8F1080F01D1A806050E05F00300A0
:10354000012801D144F0100405F00C00042801D139
:1035500044F00804F4720020A9E700006463000846
:10356000222A2B2C3A3B3C3D3E3F5B5D7C7F00009A
:103570002DE9F04104460021204600F029F90546D6
:1035800015B12846BDE8F08100BF2169206802F02E
:103590008FFB054605B116E0666937780FB904253B
:1035A00011E0F07A10F0080F06D10B223046A16925
:1035B00002F054FB00B906E00021204600F006F8B6
:1035C0000546002DE1D000BF2846DBE72DE9F0419C
:1035D0000446884600BFE088401C86B20EB12069D0
:1035E00010B90420BDE8F08116F00F0F6ED12069EC
:1035F000401C2061E06828B920680089B04265DC81
:103600000420EFE720688078401E10EA161F5DD185
:10361000E168206800F09AFF0546012D01D80220DC
:10362000E0E7681C01D10120DCE720688069A8423E
:1036300046D8B8F1000F01D10420D3E7E168206833
:10364000FFF7A0FE05460DB90720CBE7012D01D1FC
:103650000220C7E7681C01D10120C3E700212068D0
:1036600002F026FB08B10120BCE7216801F130001F
:103670004FF40072002102F011FB29462068FFF789
:1036800049FE2168C862002710E001202168087106
:103690000021206802F00CFB08B10120A2E720689D
:1036A000C06A401C2168C862781CC7B22068807854
:1036B000B842EADC2068C06AC01B2168C86200BF4B
:1036C000E56029462068FFF725FE2061E680206836
:1036D000303006F00F0100EB41106061002081E7FF
:1036E0002DE9F041044604251BE02169206802F021
:1036F000DFFA054605B117E067693E780EB9042583
:1037000012E0E52E06D02E2E04D0F87A10F0080F25
:1037100000D109E000212046FFF758FF054605B11A
:1037200002E020690028E0D100BF0DB10020206137
:103730002846BDE8F0812DE9F041044600212046ED
:1037400000F046F80546ADB900BF2169206802F0D7
:10375000AFFA054605B10CE060690678E52E00D0A9
:1037600006B906E001212046FFF730FF0546002D8F
:10377000EBD000BF9DB92169206802F099FA054697
:103780006DB9676920220021384602F087FA0B22C2
:103790003846A16902F075FA0120216808712846AF
:1037A000BDE8F08170B50446E188204600F010F8CD
:1037B00005465DB92169206802F07AFA05462DB9FF
:1037C000E52061690870012021680871284670BDF4
:1037D0002DE9F04104460E46E680A568012D03D090
:1037E00020688069A84202D80220BDE8F0812DB986
:1037F00020680078032801D12068456A65B9E56032
:1038000020680089B04201DC0220EEE72068406AAF
:1038100000EB1610206120E020688078070112E09C
:103820002946206800F092FE0546681C01D101205F
:10383000DBE7022D03D320688069A84201D802206B
:10384000D3E7F01B86B2BE42EADAE560294620687B
:10385000FFF760FD00EB161020612068303006F0A5
:103860000F0100EB411060610020BEE710B5044677
:10387000FEF7B0FA20B9012003490860002010BD0E
:10388000204600F04BF8FAE7D80000202DE9F0417F
:1038900007460C4615460026052C10D2DFE804F03A
:1038A000030A060B0E00FEF739FE0AE04FF4007023
:1038B000286006E005E00120286002E001E000BF8A
:1038C000FEE700BF3046BDE8F0812DE9F041074634
:1038D0000C4615461E4614F0030F02D00120BDE829
:1038E000F081012E09DD690233464FF40072204653
:1038F000FEF76AFD50B10120F1E769024FF4007252
:103900002046FEF7CBFC08B10120E8E7FEF706FEF3
:1039100008B10120E3E70020E1E700000146034889
:10392000006808B9012070470020FCE7D80000209B
:103930002DE9F04107460C4615461E4614F0030FCC
:1039400002D00120BDE8F081012E09DD6902334675
:103950004FF400722046FEF751FE50B10120F1E70E
:1039600069024FF400722046FEF7F0FD08B1012015
:10397000E8E7FEF7D3FD08B10120E3E70020E1E727
:1039800010B5164800683221B0FBF1F42046FEF76E
:1039900027FF1FE000201249086001F0BFF900BFB7
:1039A0000F4800680528FBD301F0FCF900BF0C4864
:1039B00000680A28FBD3FFF7A9F958B10020FEF7E9
:1039C0000FFF00200649086001200649087001F039
:1039D000A5F900E0DEE700BF10BD0000C80100202F
:1039E000000000201800002070B514480068322143
:1039F000B0FBF1F52846FEF7F3FE002411E00020AD
:103A00000F49086001F0CEF900BF0D480068022898
:103A1000FBD301F083F900BF094800680A28FBD3F3
:103A2000641C052CEBDB0020FEF7DAFE00200449C5
:103A3000086001200349087070BD0000C801002023
:103A4000000000201800002070B58CB0002047490D
:103A50000860012001F044FE0121454801F092FF79
:103A600001F094FD00254248406D08B145F0010584
:103A7000294640A001F016FA20B904203F490870F9
:103A80000CB070BD01F08EF9002400203C490860A4
:103A90003C4801F0DFF83C4800683221B0FBF1F609
:103AA0003046FEF79DFE4BE000BF35480068002819
:103AB000FBD033480068401E31490860601C044652
:103AC000022802D101F02AF904E0642C02D100247A
:103AD00001F068F969462B4801F0CFF820B32B4874
:103AE0002B4A0099126840F822102A49284A019866
:103AF000126841F822002848254A0299126840F8C5
:103B0000221023480068401C2149086008460068CC
:103B1000FA2806D1002008601F4A1E491B48FFF7FB
:103B20000FFC684601F060FBFFF7F0F818B10120C8
:103B30001249087005E011480078032800D000E021
:103B4000B2E700BF01F0EAF800200D49086000BFAD
:103B50000B4800680228FBD30020FEF741FE01F06D
:103B6000CBFA01F07FF900BF8AE7000004000020D3
:103B70003C000020746573740000000018000020F1
:103B8000000000209C0D0020C8010020E40100205E
:103B900014000020CC050020B40900202DE9FC41D0
:103BA00005460E469046254800EB061772B6386863
:103BB00018B162B60020BDE8FC814DB30F2E02DDC6
:103BC00062B60020F7E71E49681A8D4212D006DC63
:103BD0001C4828180AD0B0F5806F11D108E0B0F564
:103BE000806F09D0B0F5006F0AD107E000240AE029
:103BF000012408E0022406E0032404E0042402E097
:103C000062B60020D7E700BF31462046FDF7ECF949
:103C10007D60012038600020B8600120B040009035
:103C200000208DF804008DF8058001208DF8060035
:103C30006846FDF7C7F862B60120BCE7DCD000207B
:103C40000010014000F8FEBF38B5002405E0002058
:103C5000224901EB04110860641C132CF7DB0F20D0
:103C60008DF801008DF8020001208DF80300282056
:103C70008DF800006846FDF77FFB17208DF80000E7
:103C80006846FDF779FB0A208DF800006846FDF7CD
:103C900073FB09208DF800006846FDF76DFB0820D6
:103CA0008DF800006846FDF767FB07208DF80000DF
:103CB0006846FDF761FB06208DF800006846FDF7B9
:103CC0005BFB01208DF800006846FDF755FB2A20BC
:103CD0008DF800006846FDF74FFB38BDDCD00020B2
:103CE00010B50346054C04EB0310046804B910BD7D
:103CF00072B68160C26062B600BFF8E7DCD0002017
:103D000010B504460120A0400A4908600A4800EBAB
:103D10000410006868B1084800EB0410806840B1E6
:103D2000054A02EB0412D068034A02EB04129168C0
:103D3000884710BD14040140DCD0002070B5044653
:103D4000204600F0C6F905460DB90020206028463F
:103D500070BD2DE9F04704460E46A188206802F0A8
:103D60002EFA8246BAF1000F02D05046BDE8F08725
:103D7000A07910F0800F01D00220F7E7E068B04290
:103D800004D2A07910F0020F00D1E668D4F80890B0
:103D90004FF00008C4F80880002E77D020688078A3
:103DA0004702B9F1000F11D0701EB0FBF7F1A9F175
:103DB0000100B0FBF7F0814208D3A9F10100791EA0
:103DC0008843A060A068361A656918E02569ADB916
:103DD00000212068FFF7D6FA0546012D05D1A0790C
:103DE00040F08000A0710220C0E7681C05D1A079D6
:103DF00040F08000A0710120B8E725616561002DC9
:103E000044D029E0A07910F0020F07D0294620689D
:103E1000FFF7B8FA054635B93E461FE02946206847
:103E200000F094FB0546681C05D1A07940F08000A5
:103E3000A07101209AE7012D03D920688069A8426A
:103E400005D8A07940F08000A07102208EE765615E
:103E5000A0683844A060F61BBE42D3D800BFA0685B
:103E60003044A060F005C00D10D029462068FFF74F
:103E700051FA8046B8F1000F06D1A07940F08000D9
:103E8000A071022072E701E008EB56282089C005E6
:103E9000C00D2AD0A069404527D0A07910F0400F6E
:103EA00012D021684878012304F12401A269FFF7A8
:103EB0003FFD28B1A07940F08000A071012055E7B6
:103EC000A07920F04000A071216848780123424683
:103ED00004F12401FFF7F9FC28B1A07940F080003B
:103EE000A071012042E7C4F81880D4E90201884299
:103EF00005D9A068E060A07940F02000A07150468C
:103F000034E700000246012A01DB0B207047074816
:103F100050F822300BB10020187009B10020087051
:103F2000024840F822100020F0E70000DC010020E9
:103F30002DE9F7438AB0054616460020286006F0B2
:103F40001F0626F0010203A90BA8FFF719F8074680
:103F5000CDF824D027B903A80B9900F074FA0746CE
:103F6000089C0FB904B9062716F01C0F57D04FB1A3
:103F7000042F03D103A8FFF7DEFB074646F008062F
:103F8000089C09E0E07A10F0110F01D0072703E048
:103F900016F0040F00D00827002F3FD116F0080FAD
:103FA0003CD000F045FB804684F80E804FEA182193
:103FB000E1734FEA184121744FEA186161740020DF
:103FC000E072207700216177A177E177A17EE07E22
:103FD00041EA0021227D607D42EA002041EA004959
:103FE0000020A0760021E1762075617501200399FB
:103FF0000871B9F1000F11D00398D0F82C80494610
:10400000039801F02CFF074647B9A9F10100039975
:10401000C8604146039801F04BFE07460EE06FB9B9
:10402000E07A10F0100F01D0042707E016F0020F1D
:1040300004D0E07A10F0010F00D0072747B916F03E
:10404000080F01D046F020060398C06AE8612C6290
:10405000F7B9AE71A17EE07E41EA0021227D607D4C
:1040600042EA002041EA00402861E07F0106A07F8B
:1040700041EA0041607F41EA0020217F0843E86077
:104080000020A860A861039828600398C088A880D1
:1040900038460DB0BDE8F08333B58BB00D46002235
:1040A00004A90BA8FEF76CFF04467CB901A80A908E
:1040B00004A80B9900F0C7F904463CB9099820B14F
:1040C000294604A800F0D3FA00E0062420460DB0EB
:1040D00030BD2DE9F0410446A188206802F06FF858
:1040E0000746002F4ED1A07910F0200F4AD0A079BA
:1040F00010F0400F0FD021684878012304F124010B
:10410000A269FFF715FC10B10120BDE8F081A0798C
:1041100020F04000A071E169206801F0C9FD074668
:10412000002F2FD1256AE87A40F02000E872207B2A
:104130002877A089010A6977E068010CA977E0680F
:10414000010EE977207CA876208A010AE9762069A9
:10415000000C28752069010E697500F069FA0646A1
:10416000AE75310AE975310C2976310E6976A07980
:1041700020F02000A071012021680871206801F062
:10418000B9FF07463846C0E771B591B001220AA9C8
:1041900011A8FEF7F5FE0446002C4BD1CDF840D017
:1041A0000AA8119900F04FF9044600BF002C41D134
:1041B0000F9D0DB9062404E0E87A10F0010F00D03D
:1041C0000724A97EE87E41EA00212A7D687D42EA33
:1041D000002041EA0046E4B9E87A10F0100F18D048
:1041E000022E01D2022414E01C220AA903A801F025
:1041F00048FD0596022103A8FFF7EAFA044644B9F0
:1042000003A8FFF76DFA044604B90724042C00D173
:1042100000247CB90AA8FFF7C5FA044654B926B1B0
:1042200031460A9801F01BFE04461CB90A9801F0B9
:1042300061FF0446204612B070BD2DE9FF4F83B0E8
:10424000044615469B46049801900020CBF80000D8
:10425000A188206801F0B3FF0290029818B102987B
:1042600007B0BDE8F08FA07910F0800F01D00220D8
:10427000F6E7A07910F0020F01D10720F0E7E0681F
:104280002844E168884200D20025CCE02089C0059E
:10429000C00D77D120688078401EA16800EA5120C7
:1042A00000F0FF0ABAF1000F2AD1A06858B9D4F87B
:1042B0001080B8F1000F0BD100212068FFF762F8E1
:1042C0008046206104E061692068FFF75BF8804662
:1042D000B8F1000F00D1A9E0B8F1010F05D1A07924
:1042E00040F08000A0710220BAE718F1010005D16A
:1042F000A07940F08000A0710120B1E7C4F81480DB
:10430000A07910F0400F12D021684878012304F101
:104310002401A269FFF70CFB28B1A07940F08000CE
:10432000A07101209CE7A07920F04000A071616994
:104330002068FEF7EFFF06462EB9A07940F0800016
:10434000A07102208CE756444FEA5529B9F1000FBD
:104350002FD00AEB090021688978884203D92068A8
:104360008078A0EB0A0909F0FF03216848783246FB
:104370000199FFF7DDFA30B1A07940F08000A0711B
:1043800001206DE72CE0A069801B48450ED2A06992
:10439000801B019A02EB40214FF4007204F12400CB
:1043A00001F06FFCA07920F04000A0714FEA49278E
:1043B0002DE0A069B04212D0D4E9020188420ED2A9
:1043C000216848780123324604F12401FFF77DFA81
:1043D00028B1A07940F08000A071012040E7A661DB
:1043E0002089C0F30800C0F50077AF4200D92F46FE
:1043F0002189C1F3080204F1240150183A460199B9
:1044000001F03FFCA07940F04000A07100BF01988E
:1044100038440190A0683844A060DBF800003844BC
:10442000CBF80000ED1B002D7FF430AF00BFD4E9C6
:104430000201884201D9A068E060A07940F0200024
:10444000A07100200CE72DE9F341044601980078A3
:104450002F2803D0019800785C2802D10198401CD5
:1044600001900020A06001980078202807D2002148
:104470002046FFF7ADF90646002060612FE000BF3F
:1044800001A92046FEF7E4FF064606B126E02046D5
:10449000FFF76EF80646A069C77A46B1042E00D031
:1044A0001CE000BF17F0040F00D1052616E017F03E
:1044B000040F00D012E06569E87A10F0100F01D106
:1044C00005260BE0A97EE87E41EA00212A7D687D71
:1044D00042EA002041EA0040A060D1E700BF304638
:1044E000BDE8FC8100B58DB01348C068019012484A
:1044F000006902901048406903900F4800680490DA
:104500000D4841680591816806910C4881680991C0
:104510004168089100680790094840680A90084877
:1045200080680B9001A9074800F0CFFB10B9042068
:10453000054908700DB000BD3C00002000D00020EF
:10454000700100209C0D0020180000202DE9F04192
:1045500005460C46022C02D3A869A04202D80120CD
:10456000BDE8F0812878012804D002282CD0032847
:104570005AD13DE0274607EB5707286A00EB572141
:10458000284601F095FB00B14EE0C7F3080105F1A4
:10459000300010F801807F1C286A00EB5721284664
:1045A00001F086FB00B13FE0C7F3080105F13000E0
:1045B000405C48EA002814F0010F02D04FEA1810BE
:1045C000CEE7C8F30B00CBE7286A00EB142128469E
:1045D00001F06EFB00B127E040F2FF1000EA440159
:1045E00005F130000E183078717840EA0120B7E705
:1045F000286A00EBD411284601F05AFB00B113E001
:1046000040F2FF1000EA840105F130000E18F07846
:104610000006B17840EA0140717840EA0120317823
:10462000084320F070409BE700BF4FF0FF3097E752
:104630001CB5684601F0A0FCBDF80000A0F2BC70FB
:1046400044069DF8020044EA40549DF8030044EA01
:1046500000449DF8040044EAC0249DF8050044EAA3
:1046600040149DF8060044EA600420461CBDF0B5E5
:1046700005460B4603F109022F69002F40D06869F7
:10468000067B00210AE0445C202C00D108E0052CC8
:1046900000D1E52400BF02F8014B491C0829F2D3E0
:1046A00000BF077A202F0FD02E2702F8017B0821A8
:1046B00007E0445C202C00D105E000BF02F8014B6C
:1046C000491C0B29F5D300BFC77A1F72C77F4FEA79
:1046D000076C877F4CEA074C477F4CEA072790F826
:1046E0001CC047EA0C071F6090F818C0477E4CEAD0
:1046F00007279F8090F816C0C77D4CEA0727DF8008
:1047000000271770F0BD024602EA0100884201D17D
:10471000012070470020FCE7F0B587B004460E4644
:104720001746E56872B6207918B162B6012007B065
:10473000F0BD06A8FCF701FD02A8FCF70AFE012166
:104740000846FCF7E5FE01212869FCF7C1FE0121BE
:104750002869FCF7CDFE00212869FCF7C9FE1C2062
:104760008DF81B0001208DF81A00A889ADF81800FB
:1047700006A9A868FCF758FCA888ADF8180006A997
:104780002868FCF751FC0020ADF80C004BF6FF70D8
:10479000ADF80E0021480290A020ADF810004FF4B3
:1047A0008040ADF814000011ADF81200E87B8DF8E0
:1047B000040002208DF806008DF8050001208DF818
:1047C000070001A8FCF7D8FDA87B8DF804000320A2
:1047D0008DF806008DF8050001208DF8070001A86E
:1047E000FCF7CAFD012211022068FCF723FD01221B
:1047F00091022068FCF71EFD012251022068FCF79F
:1048000019FD01212068FCF7CFFC02A92068FCF704
:104810001BFD267162B6012089E70000A086010019
:1048200010B50446A068007828B1012807D12046B9
:1048300000F076F905E000BF00BF00BFFEE700BF53
:10484000FEE700BF10BD10B50446A06828B90020DF
:10485000216888822168088310BDA068007828B18B
:10486000012807D1204600F089F907E0204600F032
:1048700059F803E000202168888200BF00BF00BF14
:10488000EAE770B5DDE90445017042708370446069
:1048900005720026C6604672867270BD10B5044669
:1048A00000206071A068C06828B1A068C168204677
:1048B00000F0CCF807E02068008820F001002168B3
:1048C00008800020A06010BD2DE9F04186B00746A9
:1048D0000C4615461E46DDF830802B462246002148
:1048E00002A8CDE90068FFF7CCFF02A9384600F026
:1048F000CFF800BF9DF811000028FBD09DF81100F3
:1049000006B0BDE8F0817CB504460D461646012090
:1049100001AB3246294600902046FFF7D5FF9DF8AF
:1049200004007CBD70B504462068FCF776FC0546A3
:10493000607907287ED2DFE800F081041624314434
:10494000530040492846FFF7DEFE58B10121206898
:10495000FCF71EFCA268517800222068FCF7EEFCF0
:10496000022060716BE0A5F5E020823808D1206854
:10497000808AA26891782068FCF7E9FC03206071C6
:104980005DE031492068FCF733FC012805D10121A5
:104990002068FCF715FC0420607150E0294885422E
:1049A0000ED12068808AA268517801222068FCF725
:1049B000C5FC012291022068FCF73CFC05206071D7
:1049C0003DE0A5F54030801E09D1A068007A01289D
:1049D00003D100212068FCF7DBFB062060712EE08C
:1049E000A5F54030403828D12068FCF7A3FCA16829
:1049F0004A68511CA36859601070A068007A401E74
:104A0000C0B2A1680872012804D100212068FCF717
:104A1000BFFB12E0A068007A78B900206071012124
:104A20002068FCF7D9FBA6682046FFF737FF012076
:104A3000707200E002E00020B07200E000BF00BF32
:104A400070BD0000010003000400001070B50446B2
:104A50000D46A5600120A872607100BF2068008B20
:104A600010F0020FFAD12068008820F001002168C0
:104A700008802068008840F001002168088001213A
:104A80002068FCF785FB01212068FCF799FB70BDCD
:104A900070B506460D462C4602E000206072E468C0
:104AA000002CFAD172B6B46834B100E0E468E06872
:104AB0000028FBD1E56003E029463046FFF7C6FF3A
:104AC00062B670BD2DE9F04186B007460C4615462A
:104AD0001E46DDF830802B462246012102A8CDE992
:104AE0000068FFF7CEFE02A93846FFF7D1FF00BFEE
:104AF0009DF811000028FBD09DF8110006B0BDE81C
:104B0000F0817FB582B004460D461646012005AB04
:104B10003246294600902046FFF7D4FF06B070BD0C
:104B200070B504462068FCF778FB0546607910B143
:104B300002281DD10FE02068808A10F47F4F06D034
:104B40002068808A00F47F402168888202E00DB1ED
:104B500000BFFEE710E015F4806F08D00220A168C6
:104B600048720020216888822046FFF797FE03E004
:104B70000DB100BFFEE700BF00BF70BD2DE9F041E1
:104B800004462068FCF749FB06466079012806D0F8
:104B9000022812D007281DD0082843D137E0234926
:104BA0003046FFF7B0FD38B1A26851780022206886
:104BB000FCF7C4FB0220607135E01D493046FFF769
:104BC000A2FD30B1A26891782068FCF7C0FB0720F5
:104BD000607128E017492068FCF70AFBB0B1A268B1
:104BE00053685A1CA7687A6019782068FCF7AFFBF5
:104BF000A068007A401E10F0FF00A168087205D17D
:104C000001212068FCF7E8FA082060710BE0A56834
:104C1000002060712046FFF741FE012068720020ED
:104C2000A87200E000BF00BFBDE8F08101000300F2
:104C3000820007000400001010B502460846134623
:104C400003E004681C60001D1B1D01F13004A0423C
:104C5000F7D310BD72B6002106E0002201EB41033C
:104C600000EB0313DA62491CFF29F6DD4FF44052D2
:104C70001050121D105062B6704730B504460D46F4
:104C800072B64FF440500059C06AD8B100214FF4B9
:104C900040500059C1624FF4405001592846FFF777
:104CA000CBFF4FF44050005930304FF44051085181
:104CB00004F54051884202D14FF44050045162B68D
:104CC000012030BD62B60020FBE730B504460D463A
:104CD00072B643F204000059C06A10B162B60020F7
:104CE00030BD43F2040108592946FFF7A5FF012111
:104CF00043F204000059C16243F20400005930300D
:104D000043F20401085104F54051884202D143F2B4
:104D10000400045162B60120E2E700004FF0007089
:104D20000149086070470000100C014008B50121DE
:104D30000820FCF7EDFBFFF7F1FF6846FCF7FDF9F3
:104D400010208DF803004001ADF8000069460248CC
:104D5000FCF76AF908BD0000000C014008B501210C
:104D60001020FCF7D5FB0820074948616846FCF78E
:104D7000E4F910208DF803000820ADF80000694622
:104D80000148FCF751F908BD001001400820014915
:104D900048617047001001400820014908617047D0
:104DA000001001404FF40070014908607047000096
:104DB000100C014030B5012114E000220BE0264B1D
:104DC0009B5C3BB1244B9B5CB1FBF3F503FB1513E0
:104DD00003B102E0521C102AF1D300BF102A00D107
:104DE00003E0491CB1F57A7FE7D300BFB1F57A7FC4
:104DF00001D100BFFEE7194B19600020002124E01B
:104E0000154B5B5C03B91FE0134B5B5C134D2D68C6
:104E1000B5FBF3F40A2914D2DFE801F00506070810
:104E2000090A0E0F101100BF00BF00BF00BF00BF76
:104E300004EB4403184405E000BF00BF00BF20445A
:104E400000E000BF00BF00BF491C1029D8D30023D9
:104E5000034D2B6030BD0000FC00002060010020ED
:104E60006401002010B50A48FEF768FF0948FEF704
:104E700065FF0948006810B90848FFF785F9002167
:104E80000846FFF73FF800200549086010BD000004
:104E9000F4BF002018C2002064010020A4BD00203F
:104EA000280100202DE9F04786B080468A46FFF7AA
:104EB00055FF69490020FFF725F818B1002006B01A
:104EC000BDE8F0870B2265A16548FFF731F8654919
:104ED00008700846007808B10020F0E7002160481B
:104EE000FEF737FF08B10020E9E75F4B1A225F4960
:104EF0005B48FFF7A2F908B10020E0E71E215848FF
:104F0000FEF727FF08B10020D9E7002600E0761C55
:104F1000B6F57A7FFBDBDFF8589107E098F80000E0
:104F200089F8000009F1010908F1010898F800006A
:104F30000028F3D101263CE04D463446B4F57A7F93
:104F40000DDB4FF47A7094FBF0F707F1300005F8B1
:104F5000010B07EB4700C0EBC710A4EBC004642CA7
:104F60000CDB642094FBF0F707F1300005F8010B2F
:104F700007EBC70000EB0710A4EB80040A2C0ADB48
:104F80000A2094FBF0F707F1300005F8010B07EB5E
:104F90008700A4EB400404F1300005F8010B002069
:104FA000287069463248FFF777F8042800D104E0FA
:104FB000761C42F210708642BEDB00BFA6F51C5084
:104FC000103805D100210846FEF79CFF002076E747
:104FD0000B2227492748FEF7ABFF274908700846F0
:104FE000007808B100206AE7244800F05FF8FFF776
:104FF000E1FE234908604FF400411E48FEF7A9FE78
:1050000008B100205BE700211A48FEF7A2FE08B1B4
:10501000002054E71B4B3022184908391548FFF788
:105020000CF908B100204AE74FF400411148FEF79F
:1050300090FE08B1002042E7134814490860001DA3
:1050400013490860002013490860134908600120D3
:1050500012490860064832E7C4BD0020445350009E
:1050600018C2002059010020540100200C0100202A
:10507000A4BD0020F4BF002058010020E40000205F
:105080005C01002050010020A43D002040010020D0
:105090004C0100204401002048010020280100208C
:1050A0000148006870470000280100200C494A7838
:1050B000C2720A788272CA7842728A780272CA7997
:1050C000C2718A7982714A7942710A790271CA7A07
:1050D000C2708A7A82704A7A42700A7A0270704785
:1050E000E8F7FF1F024801680248401A8010704725
:1050F0004C010020A4BD002010B53148006800B963
:1051000010BD304801683048814203D12F48FEF776
:10511000E0FFF5E72E48006840B32D4800682D49B0
:105120000968401A22D02A4800682A490968401AAA
:10513000274908600846006827490968B0FBF1F074
:1051400026490968484326490968091D01EB800082
:105150001C4908601E48006840F00040204909686A
:105160000860002017490968086003E000201C4916
:10517000096808601A4800681349091F884203D16A
:1051800017480068006850B1164B4FF400420E49B2
:10519000091F0E48FFF751F808B100BFFEE70A48A3
:1051A000001F0F490860001D0649086000200849DB
:1051B0000860084908600548FEF78BFF00BF9FE7BD
:1051C000640100204C010020A83D0020F4BF002015
:1051D0004401002048010020600100205C01002003
:1051E000400100205001002070B5044600257BE0FE
:1051F0007248405D40B17148405D71490968B1FB3A
:10520000F0F200FB121000B16DE0092D68D2DFE86A
:1052100005F005671F67396753675D006949A06935
:105220000968086067480068001D66490860E06911
:105230000968086063480068001D62490860206AC8
:10524000096808605F480068001D5E49086048E022
:105250005C492068096808605A480068001D59497F
:10526000086060680968086056480068001D554974
:105270000860A0680968086052480068001D51492C
:1052800008602EE04F49E068096808604D480068F2
:10529000001D4C4908602069096808604948006899
:1052A000001D484908606069096808604548006851
:1052B000001D4449086014E04249606A09680860BA
:1052C00040480068001D3F4908600AE03D49A06A67
:1052D000096808603B480068001D3A49086000E022
:1052E00000BF00BF00BF6D1C102D81DB344800687B
:1052F000401C3349086034480068401C324908604B
:105300000846006831490968884200D070BD002015
:105310002D4908602E480068E0B12E4AFA212E4837
:10532000FDF7BDFC2B4A121DFA212C48FDF7B7FCF6
:10533000284A0832FA212A48FDF7B1FC294B1022ED
:1053400029492A48FEF779FF08B100BFFEE700208F
:105350001F490860FFF7C6FE2549096888422BD21D
:10536000FFF71AFD1648006840F00040214909681F
:105370000860144801682048814203D20020114986
:10538000096808601D4B4FF400421D491D48FEF797
:1053900054FF08B100BFFEE71B480068401C1A49D3
:1053A0000860174813490860001D0649086000207E
:1053B00003490860FFF7EAFC00BFA7E7FC000020F4
:1053C000440100204C010020480100206001002021
:1053D0002C010020F4CF00203CC4002024C8002071
:1053E0000CCC0020540100203001002018C2002005
:1053F0005C01002040010020A4BD002050010020DD
:10540000A43D0020F4BF00206401002000B593B04B
:105410004FF40040FCF740F801214FF40670FCF710
:1054200077F83720ADF8480000208DF84B0012A91E
:105430004D48FBF7F9FD01210820FCF769F84CF213
:105440000200ADF8480003208DF84A0010208DF8C6
:105450004B0012A94548FBF7E7FD00200D90012005
:105460008DF838008DF839004FF460200F9000203F
:10547000109005208DF84400072301220A213C48A2
:10548000FBF7A4F9072302220B213948FBF79EF909
:10549000072303220C213648FBF798F9072304223F
:1054A0000E213348FBF792F9072305220F213048DC
:1054B000FBF78CF90DA92E48FBF760F901212C4868
:1054C000FBF731F92A48FBF7DDF900BF2848FBF765
:1054D0004AF90028FAD12648FBF7E4F900BF24482E
:1054E000FBF737F90028FAD101210846FBF7E0FF66
:1054F0002048FBF71BFB1E484C3002901E480390CF
:105500000020049005200590002006908020079040
:10551000400008908000099020200A9000020B9023
:1055200000200C9002A91348FBF7C5FB0B208DF857
:10553000040002208DF805008DF8060001208DF88A
:10554000070001A8FBF718FF012202210948FBF719
:10555000A9FB012208210748FBF7A4FB00F016F87D
:1055600000F038F813B000BD00100140000C0140FD
:1055700000240140080002400ED0002048F2200024
:105580000149086070470000100C014048F22000FB
:105590000149086070470000140C014010B500205C
:1055A0000949087301210948FBF7C8F80121074898
:1055B000FBF7B9F801210648FBF7ACFA01210348D3
:1055C000FBF765F910BD000000D000200024014069
:1055D0000800024044F202000149086070470000E0
:1055E000140C01402DE9F0411949CA89498A501A21
:1055F000FAF777FF0646174A174BFAF7F5FE044607
:10560000FAF780FF124908600A8A498A501AFAF7A5
:1056100068FF06460F4A104BFAF7E6FE0446FAF713
:1056200071FF0B4948608A8AC98A501AFAF759FFF4
:105630000646084A5242094BFAF7D6FE0446FAF7E4
:1056400061FF0349886000200873BDE8F081000015
:1056500000D0002085EB51B81E851040E17A124041
:105660000348007B08B1012070470020FCE70000E0
:1056700000D0002010B50E490E4A08680121FFF73E
:105680004BF80B490F220868BA21FFF73CF9BA28FA
:1056900001D000BFFEE70649097B342242EA8111AE
:1056A000CBB2034920220868BA21FFF72AFA10BDBD
:1056B00070010020801A06001CB504210748A823A9
:1056C000BA22CDE9000100211038FFF7DAF80349CA
:1056D000203908681031FFF7DBF91CBD900100206C
:1056E00010B50446342141EA8411CBB2044920228A
:1056F0000868BA21FFF705FA0148047310BD0000DD
:10570000700100202DE9F041154890F8201090F824
:10571000210041EA002004B22046FAF7E2FE0546E5
:105720000022104BFAF7EEFD0746FAF7EBFE0C49A4
:105730004860084690F8221090F8230041EA0020C3
:1057400004B22046FAF7CDFE05460022064BFAF7D2
:10575000D9FD0746FAF7D6FE01498860BDE8F08119
:10576000700100200000B03F0000903F0348407EE1
:1057700008B1012070470020FCE700007001002004
:1057800001466120405C704770B588B0044607A8A8
:10579000FBF7D3FC04208DF81F00208CADF81C0013
:1057A00007A9E069FBF740FC208FADF81C0007A9B2
:1057B000606BFBF739FC0021712001556120015518
:1057C00072200155622001552520015584F83D10B5
:1057D0000020606504A8FFF769FC434E1FE0002528
:1057E00006E0705D04A9495D884200D002E06D1CAE
:1057F0000C2DF6DB00BF0C2D10D1666504203B4953
:10580000488001200880032039494880042008800E
:105810000320384948800120088004E03C363248A3
:10582000F0308642DBD300BF04F13304607F4FEADF
:105830004010617E40EAC10000F10700C0B28DF85F
:105840000800A07FE17F40EA0110C0B28DF8090096
:105850004FF0A4008DF80A00E07E4FEA00704FEA96
:1058600010608DF80B004FF003008DF80C0054F819
:105870001B0C214A4FF00101FEF74EFF54F81B0CA0
:10588000A4F133044FF080034FF021024FF03301B5
:10589000FFF737F900BF21223321A069FFF733F862
:1058A0000028F8D10520009002ABA0223321A06986
:1058B000FFF708F994F84D008006000E8DF80800F7
:1058C00094F84F004007000E8DF8090000208DF875
:1058D0000A000320009002AB80223D21A069FFF75F
:1058E000F1F808B070BD000020620008C000002080
:1058F000C8000020D0000020801A060010B5024623
:1059000001EB410402F11C0303EBC400002303720A
:10591000064B1B688488A343044C2360231D1B682B
:105920008488A343014C241D236010BD080401405A
:1059300001467120405C70471CB50446062104F105
:105940007800A8233322CDE9000100212038FEF79A
:1059500098FF04F15801A069FFF79AF81CBD1CB527
:105960000446062104F17E0083233D22CDE9000197
:1059700000211638FEF785FF04F16801A069FFF7E2
:1059800087F81CBD70B504460D46690194F84C209B
:1059900041EAC201C91DCBB220223321A069FFF721
:1059A000B0F884F8505070BD70B588B0044600213E
:1059B0006120015594F878107920005D41EA0020BB
:1059C00005B22811FAF77FFD064694F84E00294AE1
:1059D00052F820103046FAF71FFC04907A20015D3F
:1059E0007B20005D41EA002005B22811FAF76BFD2B
:1059F000064694F84E001F4A52F820103046FAF737
:105A00000BFC05907C20015D7D20005D41EA0020BB
:105A100005B229114842FAF756FD064694F84E00A1
:105A2000144A52F820103046FAF7F6FB0690606DE3
:105A3000C0B1606D0C301049486004A80F4948603F
:105A400001A80F4948604FF07E5007900A460A4966
:105A50000A48FDF78BF80198E060029921610399EB
:105A6000616105E00498E060059921610699616132
:105A700008B070BD10630008C8000020C0000020FE
:105A8000D000002070B504460021612001557F2020
:105A9000005D94F87E1040EA012005B22846FAF72E
:105AA00012FD064694F84F00174A52F8201030466F
:105AB000FAF7B2FB20608120015D8020005D41EAA1
:105AC000002005B22846FAF7FEFC064694F84F007F
:105AD0000D4A52F820103046FAF79EFBA060832052
